:4000000080673030303030307d03217e7e3030307e3030307e3030307e3030307e3030307d035d7e7e3030307e3030307e3030307e3030307e3030307e3030307e30303097
:4000400030303030303030303030303030303030303030303030303030303030303030307e3030307e303030711062e38770ef62e33841fefb50014e62e33855f80055f94a
:4000800000711062e00270ef62e338627105627505627905627d057c028f50005500013c0001a0053f008ff8500157ca5500003c0000a00b08283f00187509008ff2711017
:4000c00070ef62e000711062e00070ef62e2007c03b28fff50107f3030303030303030303030303030303030303030303030303030303030303030303030303030303030ab
:4001000030303030303030303030303030303030303030303030303030303030303030303030303030303030303030303030303030303030303030303030303030303030bf
:400140003030303030303030303030303030303071fd72a173207000883089e08aa08b30849085a086a087302303210022008010810082608330602b660063476500e600ea
:40018000e700d600b000b100b200b333b433b501b600b855b900ba10bb33bc33bd00be00ff20222140224461006900601562396733683363006600d100d300d000d200e147
:4001c000f3e200dfffde02dd00ff70ef62000071106200006201ff70ef6203ff620200711062020062030070ef62010062040071106204006205ff70ef6207ff6206007104
:400200001062060062070070ef62050062080071106208016209fe70ef620bfe620a017110620a00620b0070ef620900620c007110620c00620d0070ef620f00620e007180
:4002400010620e00620f0070ef620d00621000711062100062110070ef621300621200711062120062130070ef621100621400711062140062150070ef62170062160071be
:400280001062160062170070ef62150070ef7f7c02967c01ca7f1070ef500067500157507c02b1500167500157a17c02b170ef207f380210084f56fc00d00456fc011820e2
:4002c00070ef62e30010082839ffa01f4f48fc01a003711054fd18207509001008284f59fd610018207509008fd738fc7f21034f085d7321fc2b006073187f21fc4f085d81
:40030000712107480004b00a4170fe2b006071187f2700182b006071437001187f4173fc7f7e2103104f085d8321fc2b00608318207f4183fc7f4f0821c0082700205d83b6
:40034000213f2b0160835d8021df2b00608038fe7f43e0027f41e0fd7f62dafd7f7e43e1017f41e1fe7f4323017f4123fe7f2103104f085d8721fc2b00608718207f4187d3
:40038000fc7f219f4f085d8421602b006084187f2103104f085d8b21fc2b00608b18207f418bfc7f219f4f085d8821602b006088187f1050037c036e50037c039050037c57
:4003c00002ed7c036650037c0322208fff303030303030303030303030303030303030303030303030303030303030303030303030303030303030303030303030303030f7
:4004000030303030303030303030303030303030303030303030303030303030303030303030303030303030303030303030303030303030303030303030303030303030bc
:40044000303030303030303030303030303030303030303030303030303030303030303030303030303030303030303030303030303030303030303030303030303030307c
:40048000303030303030303030303030303030303030303030303030303030303030303030303030303030303030303030303030303030303030303030303030303030303c
:4004c00030303030303030303030303030303030303030303030303030303030303030303030303030303030303030303030303030303030303030303030303030303030fc
:020000040010ea
:020000040020da
:0200000070d9b5
:00000001ff
