:4000000080673030303030307e3030307e3030307e3030307e3030307e3030307e3030307d02ed7e7d02ec7e7e3030307e3030307e3030307e3030307e3030307e3030303e
:4000400030303030303030303030303030303030303030303030303030303030303030307e3030307e303030711062e38770ef62e33841fefb50084e62e33855f80055f943
:4000800000711062e00270ef62e338627105627505627905627d057c028550005504083c0408a0053f048ff8500157c05504003c0400a00b08283f04187509008ff2711005
:4000c00070ef62e000711062e00270ef62e2007c05a48fff50107f3030303030303030303030303030303030303030303030303030303030303030303030303030303030b5
:4001000030303030303030303030303030303030303030303030303030303030303030303030303030303030303030303030303030303030303030303030303030303030bf
:40014000303030303030303030303030303030304572726f722034303400230021fe227f270025f8267c6028660063056500e600e700d600b000b100b200b336b433b501fd
:40018000b600b855b900ba10bb33bc33bd00be00ff20212111224424212511264561006900600062006733683363006600d100d300d000d200e1ffe200df12de02dd00ffa4
:4001c00070ef62000071106200016201fe70ef6203fe620201711062020062030070ef62010062040071106204006205ff70ef6207ff620600711062060062070070ef62d1
:400200000500620800711062087f62098070ef620b80620a007110620a00620b0070ef620900620c007110620c00620d0070ef620f00620e007110620e00620f0070ef62ef
:400240000d00621000711062100062110070ef621300621200711062120062130070ef621100621400711062140062150070ef621700621600711062160062170070ef62ae
:40028000150070ef7f55050055067f5507807c02957c01c07f1070ef5000675001575a7c02b0500167500157917c02b070ef207f380210084f56fc00d00456fc0118207037
:4002c000ef62e30010082839ffa01f4f48fc01a003711054fd18207509001008284f59fd610018207509008fd738fc7f7e7e081028b00420187f903c201875dff2748fefdc
:40030000303132333435363738394142434445460867676767210fffe7901918210fffe090127f4b9fea5b9fe77f5200a0069004758ff87f905f0867676767210f90381892
:40034000210f40404090307f904b0867676767210f900918210f40404090017f082605805105600818210f29102a056008530540218f530560087f082605802e0520510582
:40038000600818210f29302a05600853054021af530560087f08260580510560082606f051067110600870ef2e054051056008401057ff2e05505105600840405d0808269f
:4003c00005c0510560084040402e05505105600840402605c051056008182108a00479bfd3202e067f51067110600870ef187f2606802e067f2607805106711060085107b3
:40040000600970ef50fa906350fa905f50039f4c5052905750039f44905f905d905b50039f3a505a904550029f32505a903d50089f16505a903550019f0e505a902d50063e
:400440009f06500e9f02502c9efe50089efa500c9ef650039ef2505a90117f80c094d4210310fff74f03ff209ede7f900c78bffc7f08193a7c010101010871105de070efa7
:4004800021073905d006ffe978bffe187f1059009fcd203dfe00b005500080113dfe06d00752fe15fe8006500617fe059e867bffbfe27f4f1052fd59fc9fa4203dfa00b00a
:4004c00005500080113dfa06d00752fa15fa8006500617fa059e5d7bfbbfe27f210308ff7a03009e633dfe00b005502080133dfe09d00952fe7856fe00800617fe08500755
:400500009e3218787bffbfd77f4f52fd210308ff4a03fc9e333dfa00b005502080133dfa09d00952fa7856fa00800617fa0850079e0218787bfbbfd77f4f080850409e0887
:4005400056000156010852003b01d0055000800350ff9de07b01bfef77003d0009bfe51818500c9de37f0010181c1e1f1f001008040201004f3803540250409dcb560000c0
:4005800056010852003d0200b005ffda8003ffdd9da27b01bfee77003d0007bfe438fd500c9da57f104f380c5503505504015a01060102105500005104580308283f0118a0
:4005c00075090076003c000abff27c03ef500057007c045f205a030603021051040851035c187c032a208048560100560000800677010f00005201530152005302470280fd
:40060000a0095503ff5504ff800755030055040050e0120150ab1a0250001a0351043180530050801a00dfc9711045000470cf8fb838f4208fff303030303030303030306e
:40064000303030303030303030303030303030303030303030303030303030303030303030303030303030303030303030303030303030303030303030303030303030307a
:40068000303030303030303030303030303030303030303030303030303030303030303030303030303030303030303030303030303030303030303030303030303030303a
:4006c00030303030303030303030303030303030303030303030303030303030303030303030303030303030303030303030303030303030303030303030303030303030fa
:4007000030303030303030303030303030303030303030303030303030303030303030303030303030303030303030303030303030303030303030303030303030303030b9
:020000040010ea
:020000040020da
:02000000bb66dd
:00000001ff
