:4000000080673030303030307e3030307e3030307e3030307e3030307e3030307e3030307e3030307e3030307e3030307e3030307e3030307e3030307e3030307e303030f5
:4000400030303030303030303030303030303030303030303030303030303030303030307e3030307d029b7e711062e38770ef41fefb50174e55f80055f900711062e002df
:4000800070ef62e338627105627505627905627d057c02825000550a153c0a17a0053f0a8ff850015759550a003c0a00a00b08283f0a187509008ff2711070ef62e00071e2
:4000c0001062e00270ef62e2007c07da8fff50107f30303030303030303030303030303030303030303030303030303030303030303030303030303030303030303030306f
:4001000030303030303030303030303030303030303030303030303030303030303030303030303030303030303030303030303030303030303030303030303030303030bf
:400140003030303030303030303030303030303000000000000000015070ef62602862660062633662650062e60062e70062d60062b00062b10062b20062b33362b4336266
:40018000b50062b60062b85562b90062ba1062bb3362bc3362bd0062be00711062610062690062600062620062673362683362630062660062d10062d30062d00062d200f3
:4001c00062e1b162e20062df0162de0162dd0070ef71106200006201ff70ef6203ff620200711062020062030070ef620100711062047f62058070ef6207806206007110b0
:4002000062060062070070ef62050071106208006209ff70ef620bff620a007110620a00620b0070ef6209007110620c00620d0070ef620f00620e007110620e00620f0077
:4002400070ef620d00711062100062110070ef621300621200711062120062130070ef621100711062140062150070ef621700621600711062160062170070ef6215007050
:40028000ef7f55100055110055137f5514805512007c02957f7c015970ef7f2e0b01470dffa0037a0d470cffa0037a0c760fd003760e7e43e0407f41e0bf7f5000530b53ba
:4002c0000c530d530f530e7f7f21184f0871105de021e72b0060e070ef187f550b00470bffaffc550b0078bff67f4b2101b006470dffbffc4b530d7f510f7f530c7f510c3d
:400300007f41e0bf510f580e43e0407f081028b00420187f903c201875dff2748fef303132333435363738394142434445460867676767210fffe7901918210fffe0901201
:400340007f4b9fea5b9fe77f5200a0069004758ff87f905f0867676767210f903818210f40404090307f904b0867676767210f900918210f40404090017f08261180511170
:40038000600418210f29102a116004531140218f531160047f082611802e11205111600418210f29302a11600453114021af531160047f08261180511160042613f051132d
:4003c0007110600470ef2e114051116004401057ff2e11505111600440405d04082611c0511160044040402e11505111600440402611c051116004182108a00479bfd32071
:400400002e137f51137110600470ef187f2613802e137f2614805113711060045114600570ef50fa906350fa905f50039f4c5052905750039f44905f905d905b50039f3ab2
:40044000505a904550029f32505a903d50089f16505a903550019f0e505a902d50069f06500e9f02502c9efe50089efa500c9ef650039ef2505a90117f80c094d421031007
:40048000fff74f03ff209ede7f900c78bffc7f08193a7c010101010871105de070ef21073905d006ffe978bffe187f1059009fcd203dfe00b005500080113dfe06d007526c
:4004c000fe15fe8006500617fe059e867bffbfe27f4f1052fd59fc9fa4203dfa00b005500080113dfa06d00752fa15fa8006500617fa059e5d7bfbbfe27f210308ff7a036a
:40050000009e633dfe00b005502080133dfe09d00952fe7856fe00800617fe0850079e3218787bffbfd77f4f52fd210308ff4a03fc9e333dfa00b005502080133dfa09d0c3
:400540000952fa7856fa00800617fa0850079e0218787bfbbfd77f4f080850409e0856000156010852003b01d0055000800350ff9de07b01bfef77003d0009bfe518185055
:400580000c9de37f0010181c1e1f1f001008040201004f3803540250409dcb56000056010852003d0200b005ffda8003ffdd9da27b01bfee77003d0007bfe438fd500c9d72
:4005c000a57f107c040d207f104f3809500008500a0852fb0852fc085a09060902510a085109087c09c838fa5601005600005a090609025201020953093e09b003802877ea
:40060000010f000052011106520031801980cfdf80155a0906090252010209530950203f0977010f000052011106520031801980cfe15608005a0906090210510a0851099f
:400640005c187c03482038f7207f104f1050007c059220207f104f380952fc0103530952fb09001008580928530a1875090028205403510a540252fc0101530952fb090036
:400680001008580928530a1875090028205401510a5400520113fa52f931805302520031801a02d01352011303520231805302520031801a02c00656040080fc52fa1303c7
:4006c00052023180530252f931801a02c00656045080e55201530752005308470880a0095509ff550aff8007550900550a0052fa530352f95304470480a0095505ff550676
:40070000ff800755050055060051031207540851041a08540751051a09540651061a0a540552050852060852070852080850000808085050087c094f38fc185408185407bb
:400740001854061854055201530752005308470880a0095509ff550aff8007550900550a005203530352025304470480a0095505ff5506ff8007550500550600510312079f
:40078000530751041a08530851051a09530951061a0a085109085108085107085205085206085207085208087c085018530718181838fc5107540410520408501008500078
:4007c0000852fc530952fb1058092820087c04d138fc2038f7207f7f7f7f7101107c02bb201050087c02c97c02b3207c05c241d6fc5516005515805001085050087c064af6
:4008000038fe7c07d7802410570050017c02ea207c07d87c084c7c07d95115085116085001085050087c065538fc8fdc8fff104f380251165401511554005601025600001d
:40084000520153165200531538fe207f7c082e7f104f380150003df980c0067c091a50c03df580c00c104b11044b7c091a318020087c08c0186ad0047c091a6ad0084b1161
:40088000044b7c091a38ff207f104f7c0890207f50005301530255001066fc6cfb6b016b0251011bfa51021bf9c009530252fa1c0177fc7a00bfe3510154fa510254f97fbf
:4008c000510a085000530a53025301530056002066fc6cfb6cfa6cf96b006b016b026b0a51001bf851011bf751021bf6510a1bf5c011530a52f8140052f71c0152f61c023a
:4009000077fc7b00bfcb510054f8510154f7510254f6510a54f518530a7f37fcff77fc37fbff0ffb0037faff0ffa0037f9ff0ff9007f530260e8510160e95dea470280a019
:40094000030201470180a003020253025deb7f104f52f560e852fc530160e95deb54f552f67c093254f6510205f552fb60e95deb05f552f84c017c093254f85f000252fbc6
:400980007c0932040051020df60ff50052fa7c093205f651020df552f960e85deb05f552f7530152fc7c0932020054f751020df60ff50052fb7c093205f651020df552fa11
:4009c00060e85deb05f5207f104f380952fa540352f954023df900b0223dfa00b01d52fc530950303f0952fc0101530950003f0952fc530952fb530a814852fa110052f963
:400a000031801980d0263df700b0213df80ab01c5606015203735309520273530a510901015403510a09005402800456060052fc540152f70852f8085202085203087c08f1
:400a40008938fe18530918530a51095408510a54075009130852073180530250801a02c01d520153095200530a510901015401510a09005400520801303f09801b520153eb
:400a8000095200530a510901015401510a09005400520801573f0952f70852f8085202085203087c088918540318540238fe3d0200bf803d0300bf7b3d0600a01952015305
:400ac000095200530a510901015401510a09005400502d3f09520153095200530a510901ff5401510a09ff540050003f0952fc5405803d520553093e0954065205530952f7
:400b000004530a510901015405510a09005404520153073e073f09520153095200530a510901ff5401510a09ff540052063f095201530a52053a0acfbb52fc530952fb5326
:400b40000a38f7207f30303030303030303030303030303030303030303030303030303030303030303030303030303030303030303030303030303030303030303030308d
:400b80003030303030303030303030303030303030303030303030303030303030303030303030303030303030303030303030303030303030303030303030303030303035
:400bc00030303030303030303030303030303030303030303030303030303030303030303030303030303030303030303030303030303030303030303030303030303030f5
:400c000030303030303030303030303030303030303030303030303030303030303030303030303030303030303030303030303030303030303030303030303030303030b4
:400c40003030303030303030303030303030303030303030303030303030303030303030303030303030303030303030303030303030303030303030303030303030303074
:403f80000000303030303030303030303030303030303030303030303030303030303030303030303030303030303030303030303030303030303030303030303030303061
:403fc00062760000000000000000000000000000000000003030303030303030303030303030303030303030303030303030303030303030303030303030303030303030a9
:020000040010ea
:40000000ffffffffffffffffffffffffffffffffffffffffffffffffffffffffffffffffffffffffffffffffffffffffffffffffffffffffffffffffffffffffffffff0ff0
:020000040020da
:02000000399a2b
:00000001ff
